{
  "contractName": "Counter",
  "abi": [
    {
      "inputs": [],
      "stateMutability": "nonpayable",
      "type": "constructor"
    },
    {
      "anonymous": false,
      "inputs": [
        {
          "indexed": false,
          "internalType": "uint256",
          "name": "value",
          "type": "uint256"
        }
      ],
      "name": "Count",
      "type": "event"
    },
    {
      "inputs": [],
      "name": "get",
      "outputs": [
        {
          "internalType": "uint256",
          "name": "",
          "type": "uint256"
        }
      ],
      "stateMutability": "view",
      "type": "function"
    },
    {
      "inputs": [],
      "name": "increment",
      "outputs": [],
      "stateMutability": "nonpayable",
      "type": "function"
    },
    {
      "inputs": [],
      "name": "decrement",
      "outputs": [],
      "stateMutability": "nonpayable",
      "type": "function"
    }
  ],
  "bytecode": "0x608060405234801561001057600080fd5b5061024c806100206000396000f3fe608060405234801561001057600080fd5b50600436106100415760003560e01c80632baeceb7146100465780636d4ce63c14610050578063d09de08a1461006e575b600080fd5b61004e610078565b005b6100586100cc565b6040516100659190610138565b60405180910390f35b6100766100d5565b005b600160008082825461008a91906101a9565b925050819055507face32e4392fafee7f8245a5ae6a32722dc74442d018c52e460835648cbeeeba16000546040516100c29190610138565b60405180910390a1565b60008054905090565b60016000808282546100e79190610153565b925050819055507face32e4392fafee7f8245a5ae6a32722dc74442d018c52e460835648cbeeeba160005460405161011f9190610138565b60405180910390a1565b610132816101dd565b82525050565b600060208201905061014d6000830184610129565b92915050565b600061015e826101dd565b9150610169836101dd565b9250827fffffffffffffffffffffffffffffffffffffffffffffffffffffffffffffffff0382111561019e5761019d6101e7565b5b828201905092915050565b60006101b4826101dd565b91506101bf836101dd565b9250828210156101d2576101d16101e7565b5b828203905092915050565b6000819050919050565b7f4e487b7100000000000000000000000000000000000000000000000000000000600052601160045260246000fdfea2646970667358221220e7a36aedbc9d0b0ad72ac467b339fd24e7d4c76b911b083bfe55b648fbe69eb664736f6c63430008000033",
  "immutableReferences": {},
  "source": "// SPDX-License-Identifier: MIT \npragma solidity ^0.8.0;\n\ncontract Counter {\n    uint256 value;\n    event Count(uint256 value);\n\n    constructor() {}\n\n    function get() public view returns (uint256) {\n        return value;\n    }\n\n    function increment() public {\n        value += 1;\n        emit Count(value);\n    }\n\n    function decrement () public {\n        value -= 1;\n        emit Count(value);\n    }\n}",
  "sourcePath": "/Users/hynn/Desktop/Block-Chain/20230525/contracts/Counter.sol",
  "compiler": {
    "name": "solc",
    "version": "0.8.0+commit.c7dfd78e.Emscripten.clang"
  },
  "schemaVersion": "3.4.14",
  "updatedAt": "2023-05-25T02:27:55.327Z",
  "devdoc": {
    "kind": "dev",
    "methods": {},
    "version": 1
  },
  "userdoc": {
    "kind": "user",
    "methods": {},
    "version": 1
  }
}