{
  "contractName": "Counter",
  "abi": [
    {
      "inputs": [],
      "stateMutability": "nonpayable",
      "type": "constructor"
    },
    {
      "inputs": [],
      "name": "getValue",
      "outputs": [
        {
          "internalType": "uint256",
          "name": "",
          "type": "uint256"
        }
      ],
      "stateMutability": "view",
      "type": "function",
      "constant": true
    },
    {
      "inputs": [],
      "name": "increment",
      "outputs": [],
      "stateMutability": "nonpayable",
      "type": "function"
    },
    {
      "inputs": [],
      "name": "decrement",
      "outputs": [],
      "stateMutability": "nonpayable",
      "type": "function"
    }
  ],
  "bytecode": "0x608060405234801561001057600080fd5b506101da806100206000396000f3fe608060405234801561001057600080fd5b50600436106100415760003560e01c806320965255146100465780632baeceb714610064578063d09de08a1461006e575b600080fd5b61004e610078565b60405161005b91906100c6565b60405180910390f35b61006c610081565b005b61007661009c565b005b60008054905090565b60016000808282546100939190610137565b92505081905550565b60016000808282546100ae91906100e1565b92505081905550565b6100c08161016b565b82525050565b60006020820190506100db60008301846100b7565b92915050565b60006100ec8261016b565b91506100f78361016b565b9250827fffffffffffffffffffffffffffffffffffffffffffffffffffffffffffffffff0382111561012c5761012b610175565b5b828201905092915050565b60006101428261016b565b915061014d8361016b565b9250828210156101605761015f610175565b5b828203905092915050565b6000819050919050565b7f4e487b7100000000000000000000000000000000000000000000000000000000600052601160045260246000fdfea26469706673582212205136fbe9b73078d4397464c5f3d5ba1337270e4f10265935eb348305a6e5b01e64736f6c63430008000033",
  "immutableReferences": {},
  "source": "// SPDX-License-Identifier: MIT \npragma solidity ^0.8.0;\n\ncontract Counter {\n    uint256 value;\n\n    constructor(){}\n\n    function getValue() public view returns(uint256) {\n        return value;\n    }\n\n    function increment() public{\n        value += 1;\n    }\n\n    function decrement() public{\n        value -=1;\n    }\n}",
  "sourcePath": "/Users/hynn/Desktop/Block-Chain/20230524/contracts/Counter.sol",
  "compiler": {
    "name": "solc",
    "version": "0.8.0+commit.c7dfd78e.Emscripten.clang"
  },
  "schemaVersion": "3.4.14",
  "updatedAt": "2023-05-24T03:15:46.208Z",
  "networkType": "ethereum",
  "devdoc": {
    "kind": "dev",
    "methods": {},
    "version": 1
  },
  "userdoc": {
    "kind": "user",
    "methods": {},
    "version": 1
  }
}