{
  "contractName": "IngToken",
  "abi": [
    {
      "inputs": [],
      "stateMutability": "nonpayable",
      "type": "constructor"
    },
    {
      "inputs": [
        {
          "internalType": "address",
          "name": "",
          "type": "address"
        }
      ],
      "name": "balances",
      "outputs": [
        {
          "internalType": "uint256",
          "name": "",
          "type": "uint256"
        }
      ],
      "stateMutability": "view",
      "type": "function",
      "constant": true
    },
    {
      "inputs": [],
      "name": "decimals",
      "outputs": [
        {
          "internalType": "uint8",
          "name": "",
          "type": "uint8"
        }
      ],
      "stateMutability": "view",
      "type": "function",
      "constant": true
    },
    {
      "inputs": [],
      "name": "name",
      "outputs": [
        {
          "internalType": "string",
          "name": "",
          "type": "string"
        }
      ],
      "stateMutability": "view",
      "type": "function",
      "constant": true
    },
    {
      "inputs": [],
      "name": "symbol",
      "outputs": [
        {
          "internalType": "string",
          "name": "",
          "type": "string"
        }
      ],
      "stateMutability": "view",
      "type": "function",
      "constant": true
    },
    {
      "inputs": [],
      "name": "totalSupply",
      "outputs": [
        {
          "internalType": "uint256",
          "name": "",
          "type": "uint256"
        }
      ],
      "stateMutability": "view",
      "type": "function",
      "constant": true
    },
    {
      "inputs": [
        {
          "internalType": "address",
          "name": "_owner",
          "type": "address"
        }
      ],
      "name": "balanceOf",
      "outputs": [
        {
          "internalType": "uint256",
          "name": "",
          "type": "uint256"
        }
      ],
      "stateMutability": "view",
      "type": "function",
      "constant": true
    },
    {
      "inputs": [
        {
          "internalType": "address",
          "name": "_to",
          "type": "address"
        },
        {
          "internalType": "uint256",
          "name": "_value",
          "type": "uint256"
        }
      ],
      "name": "transfer",
      "outputs": [
        {
          "internalType": "bool",
          "name": "",
          "type": "bool"
        }
      ],
      "stateMutability": "nonpayable",
      "type": "function"
    }
  ],
  "bytecode": "0x60806040526040518060400160405280600881526020017f496e67546f6b656e000000000000000000000000000000000000000000000000815250600190805190602001906200005192919062000145565b506040518060400160405280600481526020017f48594e4e00000000000000000000000000000000000000000000000000000000815250600290805190602001906200009f92919062000145565b506012600360006101000a81548160ff021916908360ff160217905550600360009054906101000a900460ff16600a620000da919062000250565b6103e8620000e991906200038d565b600455348015620000f957600080fd5b506004546000803373ffffffffffffffffffffffffffffffffffffffff1673ffffffffffffffffffffffffffffffffffffffff16815260200190815260200160002081905550620004a6565b828054620001539062000405565b90600052602060002090601f016020900481019282620001775760008555620001c3565b82601f106200019257805160ff1916838001178555620001c3565b82800160010185558215620001c3579182015b82811115620001c2578251825591602001919060010190620001a5565b5b509050620001d29190620001d6565b5090565b5b80821115620001f1576000816000905550600101620001d7565b5090565b6000808291508390505b600185111562000247578086048111156200021f576200021e6200043b565b5b60018516156200022f5780820291505b80810290506200023f8562000499565b9450620001ff565b94509492505050565b60006200025d82620003ee565b91506200026a83620003f8565b9250620002997fffffffffffffffffffffffffffffffffffffffffffffffffffffffffffffffff8484620002a1565b905092915050565b600082620002b3576001905062000386565b81620002c3576000905062000386565b8160018114620002dc5760028114620002e7576200031d565b600191505062000386565b60ff841115620002fc57620002fb6200043b565b5b8360020a9150848211156200031657620003156200043b565b5b5062000386565b5060208310610133831016604e8410600b8410161715620003575782820a9050838111156200035157620003506200043b565b5b62000386565b620003668484846001620001f5565b9250905081840481111562000380576200037f6200043b565b5b81810290505b9392505050565b60006200039a82620003ee565b9150620003a783620003ee565b9250817fffffffffffffffffffffffffffffffffffffffffffffffffffffffffffffffff0483118215151615620003e357620003e26200043b565b5b828202905092915050565b6000819050919050565b600060ff82169050919050565b600060028204905060018216806200041e57607f821691505b602082108114156200043557620004346200046a565b5b50919050565b7f4e487b7100000000000000000000000000000000000000000000000000000000600052601160045260246000fd5b7f4e487b7100000000000000000000000000000000000000000000000000000000600052602260045260246000fd5b60008160011c9050919050565b61085180620004b66000396000f3fe608060405234801561001057600080fd5b506004361061007d5760003560e01c8063313ce5671161005b578063313ce567146100ee57806370a082311461010c57806395d89b411461013c578063a9059cbb1461015a5761007d565b806306fdde031461008257806318160ddd146100a057806327e235e3146100be575b600080fd5b61008a61018a565b60405161009791906105a6565b60405180910390f35b6100a8610218565b6040516100b591906105e8565b60405180910390f35b6100d860048036038101906100d39190610480565b61021e565b6040516100e591906105e8565b60405180910390f35b6100f6610236565b6040516101039190610603565b60405180910390f35b61012660048036038101906101219190610480565b610249565b60405161013391906105e8565b60405180910390f35b610144610291565b60405161015191906105a6565b60405180910390f35b610174600480360381019061016f91906104a9565b61031f565b604051610181919061058b565b60405180910390f35b600180546101979061074c565b80601f01602080910402602001604051908101604052809291908181526020018280546101c39061074c565b80156102105780601f106101e557610100808354040283529160200191610210565b820191906000526020600020905b8154815290600101906020018083116101f357829003601f168201915b505050505081565b60045481565b60006020528060005260406000206000915090505481565b600360009054906101000a900460ff1681565b60008060008373ffffffffffffffffffffffffffffffffffffffff1673ffffffffffffffffffffffffffffffffffffffff168152602001908152602001600020549050919050565b6002805461029e9061074c565b80601f01602080910402602001604051908101604052809291908181526020018280546102ca9061074c565b80156103175780601f106102ec57610100808354040283529160200191610317565b820191906000526020600020905b8154815290600101906020018083116102fa57829003601f168201915b505050505081565b6000816000803373ffffffffffffffffffffffffffffffffffffffff1673ffffffffffffffffffffffffffffffffffffffff1681526020019081526020016000205410156103a2576040517f08c379a0000000000000000000000000000000000000000000000000000000008152600401610399906105c8565b60405180910390fd5b816000803373ffffffffffffffffffffffffffffffffffffffff1673ffffffffffffffffffffffffffffffffffffffff16815260200190815260200160002060008282546103f09190610690565b92505081905550816000808573ffffffffffffffffffffffffffffffffffffffff1673ffffffffffffffffffffffffffffffffffffffff1681526020019081526020016000206000828254610445919061063a565b925050819055506001905092915050565b600081359050610465816107ed565b92915050565b60008135905061047a81610804565b92915050565b60006020828403121561049257600080fd5b60006104a084828501610456565b91505092915050565b600080604083850312156104bc57600080fd5b60006104ca85828601610456565b92505060206104db8582860161046b565b9150509250929050565b6104ee816106d6565b82525050565b60006104ff8261061e565b6105098185610629565b9350610519818560208601610719565b610522816107dc565b840191505092915050565b600061053a601283610629565b91507f4e6f7420656e6f7567682062616c616e636500000000000000000000000000006000830152602082019050919050565b61057681610702565b82525050565b6105858161070c565b82525050565b60006020820190506105a060008301846104e5565b92915050565b600060208201905081810360008301526105c081846104f4565b905092915050565b600060208201905081810360008301526105e18161052d565b9050919050565b60006020820190506105fd600083018461056d565b92915050565b6000602082019050610618600083018461057c565b92915050565b600081519050919050565b600082825260208201905092915050565b600061064582610702565b915061065083610702565b9250827fffffffffffffffffffffffffffffffffffffffffffffffffffffffffffffffff038211156106855761068461077e565b5b828201905092915050565b600061069b82610702565b91506106a683610702565b9250828210156106b9576106b861077e565b5b828203905092915050565b60006106cf826106e2565b9050919050565b60008115159050919050565b600073ffffffffffffffffffffffffffffffffffffffff82169050919050565b6000819050919050565b600060ff82169050919050565b60005b8381101561073757808201518184015260208101905061071c565b83811115610746576000848401525b50505050565b6000600282049050600182168061076457607f821691505b60208210811415610778576107776107ad565b5b50919050565b7f4e487b7100000000000000000000000000000000000000000000000000000000600052601160045260246000fd5b7f4e487b7100000000000000000000000000000000000000000000000000000000600052602260045260246000fd5b6000601f19601f8301169050919050565b6107f6816106c4565b811461080157600080fd5b50565b61080d81610702565b811461081857600080fd5b5056fea2646970667358221220ce5975dcab765d798552ea962101d151094e6ecda96777376a9f39f34b1d2a2064736f6c63430008000033",
  "immutableReferences": {},
  "source": "// SPDX - License - Identifier: MIT\npragma solidity ^0.8.0;\n\ncontract IngToken{\n\n    mapping(address => uint256) public balances;\n\n    // Token Name(), Symbol(), Decimals(), TotalSupply()\n    string public name = \"IngToken\";\n    string public symbol = \"HYNN\";\n    uint8 public decimals = 18;\n    uint256 public totalSupply = 1000 * 10 ** decimals;\n    // *  ** \n\n    //0xA = 1000 * 10 ** 18\n\n    constructor(){\n        balances[msg.sender] = totalSupply;\n    }\n    // Getting value of balance\n    function balanceOf(address _owner) public view returns(uint256){\n        return balances[_owner];\n    }\n    // Transfering value of balance mean sending value of balance\n    // bool is boolean\n    function transfer(address _to, uint256 _value) public returns(bool){\n        // require like a throw new Error in JS\n        require(balances[msg.sender] >= _value, \"Not enough balance\");\n        balances[msg.sender] -= _value;\n        balances[_to] += _value;\n        return true;\n    }\n}\n",
  "sourcePath": "/Users/hynn/Desktop/Block-Chain/20230526/contracts/ingToken.sol",
  "compiler": {
    "name": "solc",
    "version": "0.8.0+commit.c7dfd78e.Emscripten.clang"
  },
  "schemaVersion": "3.4.14",
  "updatedAt": "2023-05-26T03:20:03.389Z",
  "networkType": "ethereum",
  "devdoc": {
    "kind": "dev",
    "methods": {},
    "version": 1
  },
  "userdoc": {
    "kind": "user",
    "methods": {},
    "version": 1
  }
}