{
  "contractName": "EthSwap",
  "abi": [
    {
      "inputs": [
        {
          "internalType": "contract ERC20",
          "name": "_token",
          "type": "address"
        }
      ],
      "stateMutability": "nonpayable",
      "type": "constructor"
    },
    {
      "inputs": [],
      "name": "owner",
      "outputs": [
        {
          "internalType": "address",
          "name": "",
          "type": "address"
        }
      ],
      "stateMutability": "view",
      "type": "function",
      "constant": true
    },
    {
      "inputs": [],
      "name": "rate",
      "outputs": [
        {
          "internalType": "uint256",
          "name": "",
          "type": "uint256"
        }
      ],
      "stateMutability": "view",
      "type": "function",
      "constant": true
    },
    {
      "inputs": [],
      "name": "token",
      "outputs": [
        {
          "internalType": "contract ERC20",
          "name": "",
          "type": "address"
        }
      ],
      "stateMutability": "view",
      "type": "function",
      "constant": true
    },
    {
      "inputs": [],
      "name": "getToken",
      "outputs": [
        {
          "internalType": "address",
          "name": "",
          "type": "address"
        }
      ],
      "stateMutability": "view",
      "type": "function",
      "constant": true
    },
    {
      "inputs": [],
      "name": "getSwapBalance",
      "outputs": [
        {
          "internalType": "uint256",
          "name": "",
          "type": "uint256"
        }
      ],
      "stateMutability": "view",
      "type": "function",
      "constant": true
    },
    {
      "inputs": [],
      "name": "getThisAddress",
      "outputs": [
        {
          "internalType": "address",
          "name": "",
          "type": "address"
        }
      ],
      "stateMutability": "view",
      "type": "function",
      "constant": true
    },
    {
      "inputs": [],
      "name": "getTokenOwner",
      "outputs": [
        {
          "internalType": "address",
          "name": "",
          "type": "address"
        }
      ],
      "stateMutability": "view",
      "type": "function",
      "constant": true
    },
    {
      "inputs": [],
      "name": "buyToken",
      "outputs": [],
      "stateMutability": "payable",
      "type": "function",
      "payable": true
    }
  ],
  "bytecode": "0x6080604052606460015533600260006101000a81548173ffffffffffffffffffffffffffffffffffffffff021916908373ffffffffffffffffffffffffffffffffffffffff16021790555034801561005657600080fd5b50604051610a88380380610a88833981810160405281019061007891906100d3565b806000806101000a81548173ffffffffffffffffffffffffffffffffffffffff021916908373ffffffffffffffffffffffffffffffffffffffff16021790555050610157565b6000815190506100cd81610140565b92915050565b6000602082840312156100e557600080fd5b60006100f3848285016100be565b91505092915050565b600061010782610120565b9050919050565b6000610119826100fc565b9050919050565b600073ffffffffffffffffffffffffffffffffffffffff82169050919050565b6101498161010e565b811461015457600080fd5b50565b610922806101666000396000f3fe60806040526004361061007b5760003560e01c8063b7182b951161004e578063b7182b951461010b578063c7b00aad14610136578063d395382214610161578063fc0c546a1461018c5761007b565b806321df0da7146100805780632c4e722e146100ab5780638da5cb5b146100d6578063a482171914610101575b600080fd5b34801561008c57600080fd5b506100956101b7565b6040516100a2919061072a565b60405180910390f35b3480156100b757600080fd5b506100c06101e0565b6040516100cd9190610797565b60405180910390f35b3480156100e257600080fd5b506100eb6101e6565b6040516100f8919061072a565b60405180910390f35b61010961020c565b005b34801561011757600080fd5b506101206104c0565b60405161012d919061072a565b60405180910390f35b34801561014257600080fd5b5061014b610566565b6040516101589190610797565b60405180910390f35b34801561016d57600080fd5b50610176610617565b604051610183919061072a565b60405180910390f35b34801561019857600080fd5b506101a161061f565b6040516101ae919061077c565b60405180910390f35b60008060009054906101000a900473ffffffffffffffffffffffffffffffffffffffff16905090565b60015481565b600260009054906101000a900473ffffffffffffffffffffffffffffffffffffffff1681565b60006001543461021c91906107b2565b90508060008054906101000a900473ffffffffffffffffffffffffffffffffffffffff1673ffffffffffffffffffffffffffffffffffffffff166370a0823160008054906101000a900473ffffffffffffffffffffffffffffffffffffffff1673ffffffffffffffffffffffffffffffffffffffff1663527097256040518163ffffffff1660e01b815260040160206040518083038186803b1580156102c157600080fd5b505afa1580156102d5573d6000803e3d6000fd5b505050506040513d601f19601f820116820180604052508101906102f99190610682565b6040518263ffffffff1660e01b8152600401610315919061072a565b60206040518083038186803b15801561032d57600080fd5b505afa158015610341573d6000803e3d6000fd5b505050506040513d601f19601f8201168201806040525081019061036591906106d4565b101561037057600080fd5b60008054906101000a900473ffffffffffffffffffffffffffffffffffffffff1673ffffffffffffffffffffffffffffffffffffffff166323b872dd60008054906101000a900473ffffffffffffffffffffffffffffffffffffffff1673ffffffffffffffffffffffffffffffffffffffff1663527097256040518163ffffffff1660e01b815260040160206040518083038186803b15801561041257600080fd5b505afa158015610426573d6000803e3d6000fd5b505050506040513d601f19601f8201168201806040525081019061044a9190610682565b33846040518463ffffffff1660e01b815260040161046a93929190610745565b602060405180830381600087803b15801561048457600080fd5b505af1158015610498573d6000803e3d6000fd5b505050506040513d601f19601f820116820180604052508101906104bc91906106ab565b5050565b60008060009054906101000a900473ffffffffffffffffffffffffffffffffffffffff1673ffffffffffffffffffffffffffffffffffffffff1663527097256040518163ffffffff1660e01b815260040160206040518083038186803b15801561052957600080fd5b505afa15801561053d573d6000803e3d6000fd5b505050506040513d601f19601f820116820180604052508101906105619190610682565b905090565b60008060009054906101000a900473ffffffffffffffffffffffffffffffffffffffff1673ffffffffffffffffffffffffffffffffffffffff166370a08231336040518263ffffffff1660e01b81526004016105c2919061072a565b60206040518083038186803b1580156105da57600080fd5b505afa1580156105ee573d6000803e3d6000fd5b505050506040513d601f19601f8201168201806040525081019061061291906106d4565b905090565b600030905090565b60008054906101000a900473ffffffffffffffffffffffffffffffffffffffff1681565b600081519050610652816108a7565b92915050565b600081519050610667816108be565b92915050565b60008151905061067c816108d5565b92915050565b60006020828403121561069457600080fd5b60006106a284828501610643565b91505092915050565b6000602082840312156106bd57600080fd5b60006106cb84828501610658565b91505092915050565b6000602082840312156106e657600080fd5b60006106f48482850161066d565b91505092915050565b6107068161080c565b82525050565b61071581610854565b82525050565b6107248161084a565b82525050565b600060208201905061073f60008301846106fd565b92915050565b600060608201905061075a60008301866106fd565b61076760208301856106fd565b610774604083018461071b565b949350505050565b6000602082019050610791600083018461070c565b92915050565b60006020820190506107ac600083018461071b565b92915050565b60006107bd8261084a565b91506107c88361084a565b9250817fffffffffffffffffffffffffffffffffffffffffffffffffffffffffffffffff048311821515161561080157610800610878565b5b828202905092915050565b60006108178261082a565b9050919050565b60008115159050919050565b600073ffffffffffffffffffffffffffffffffffffffff82169050919050565b6000819050919050565b600061085f82610866565b9050919050565b60006108718261082a565b9050919050565b7f4e487b7100000000000000000000000000000000000000000000000000000000600052601160045260246000fd5b6108b08161080c565b81146108bb57600080fd5b50565b6108c78161081e565b81146108d257600080fd5b50565b6108de8161084a565b81146108e957600080fd5b5056fea2646970667358221220c00528bd162fc8f752bfb4785d365d3b4d18e0260661547db0029c36ace8e20e64736f6c63430008000033",
  "immutableReferences": {},
  "source": "// SPDX-License-Identifier: MIT \npragma solidity ^0.8.0;\n\nimport \"../node_modules/@openzeppelin/contracts/token/ERC20/ERC20.sol\";\n\ncontract EthSwap {\n    ERC20 public token;\n    uint256 public rate = 100;\n    address public owner = msg.sender;\n\n    constructor(ERC20 _token) {\n        token = _token;\n    }\n\n    function getToken()public view returns(address){\n        return address(token);\n    }\n\n    function getSwapBalance() public view returns (uint256){\n        return token.balanceOf(msg.sender);\n    }\n\n    function getThisAddress() public view returns (address){\n        return address(this);\n    }\n\n    function getTokenOwner() public view returns (address){\n        return token.owner2();\n    }\n\n    function buyToken() public payable {\n        uint256 tokenAmount = msg.value * rate;\n        require(token.balanceOf(token.owner2()) >= tokenAmount);\n        token.transferFrom(token.owner2(), msg.sender, tokenAmount);\n    }\n}\n\n",
  "sourcePath": "/Users/hynn/Desktop/Block-Chain/20230531/contracts/EthSwap.sol",
  "compiler": {
    "name": "solc",
    "version": "0.8.0+commit.c7dfd78e.Emscripten.clang"
  },
  "schemaVersion": "3.4.14",
  "updatedAt": "2023-05-31T08:33:10.542Z",
  "networkType": "ethereum",
  "devdoc": {
    "kind": "dev",
    "methods": {},
    "version": 1
  },
  "userdoc": {
    "kind": "user",
    "methods": {},
    "version": 1
  }
}